{
  "_format": "hh-sol-artifact-1",
  "contractName": "WavePortal",
  "sourceName": "contracts/WavePortal.sol",
  "abi": [
    {
      "inputs": [],
      "stateMutability": "nonpayable",
      "type": "constructor"
    },
    {
      "anonymous": false,
      "inputs": [
        {
          "indexed": true,
          "internalType": "address",
          "name": "from",
          "type": "address"
        },
        {
          "indexed": false,
          "internalType": "uint256",
          "name": "timestamp",
          "type": "uint256"
        },
        {
          "indexed": false,
          "internalType": "string",
          "name": "message",
          "type": "string"
        }
      ],
      "name": "NewSong",
      "type": "event"
    },
    {
      "inputs": [],
      "name": "getAllSongs",
      "outputs": [
        {
          "components": [
            {
              "internalType": "address",
              "name": "sender",
              "type": "address"
            },
            {
              "internalType": "string",
              "name": "message",
              "type": "string"
            },
            {
              "internalType": "uint256",
              "name": "timestamp",
              "type": "uint256"
            }
          ],
          "internalType": "struct WavePortal.Song[]",
          "name": "",
          "type": "tuple[]"
        }
      ],
      "stateMutability": "view",
      "type": "function"
    },
    {
      "inputs": [],
      "name": "getSongLink",
      "outputs": [
        {
          "internalType": "uint256",
          "name": "",
          "type": "uint256"
        }
      ],
      "stateMutability": "view",
      "type": "function"
    },
    {
      "inputs": [
        {
          "internalType": "string",
          "name": "_message",
          "type": "string"
        }
      ],
      "name": "song",
      "outputs": [],
      "stateMutability": "nonpayable",
      "type": "function"
    }
  ],
  "bytecode": "0x60806040523480156200001157600080fd5b506200005d6040518060400160405280601e81526020017f4920616d206120736d61727420636f6e74726163742120506572696f642e00008152506200006360201b620003d31760201c565b620001f7565b62000103816040516024016200007a919062000170565b6040516020818303038152906040527f41304fac000000000000000000000000000000000000000000000000000000007bffffffffffffffffffffffffffffffffffffffffffffffffffffffff19166020820180517bffffffffffffffffffffffffffffffffffffffffffffffffffffffff83818316178352505050506200010660201b60201c565b50565b60008151905060006a636f6e736f6c652e6c6f679050602083016000808483855afa5050505050565b60006200013c8262000194565b6200014881856200019f565b93506200015a818560208601620001b0565b6200016581620001e6565b840191505092915050565b600060208201905081810360008301526200018c81846200012f565b905092915050565b600081519050919050565b600082825260208201905092915050565b60005b83811015620001d0578082015181840152602081019050620001b3565b83811115620001e0576000848401525b50505050565b6000601f19601f8301169050919050565b610c6b80620002076000396000f3fe608060405234801561001057600080fd5b50600436106100415760003560e01c8063236292741461004657806329ef6862146100625780637ead60a114610080575b600080fd5b610060600480360381019061005b91906106db565b61009e565b005b61006a610216565b60405161007791906108a3565b60405180910390f35b610088610367565b604051610095919061095c565b60405180910390f35b60016000808282546100b09190610a6e565b925050819055506100f76040518060400160405280601381526020017f2573206861732073656e74206120736f6e672100000000000000000000000000815250338361046c565b600160405180606001604052803373ffffffffffffffffffffffffffffffffffffffff16815260200183815260200142815250908060018154018082558091505060019003906000526020600020906003020160009091909190915060008201518160000160006101000a81548173ffffffffffffffffffffffffffffffffffffffff021916908373ffffffffffffffffffffffffffffffffffffffff16021790555060208201518160010190805190602001906101b69291906105d0565b506040820151816002015550503373ffffffffffffffffffffffffffffffffffffffff167f2e96c1f7928a9072fdae4127a395c0b9269f4a7dce78ac1d1ee0c22036af97d9428360405161020b929190610977565b60405180910390a250565b60606001805480602002602001604051908101604052809291908181526020016000905b8282101561035e57838290600052602060002090600302016040518060600160405290816000820160009054906101000a900473ffffffffffffffffffffffffffffffffffffffff1673ffffffffffffffffffffffffffffffffffffffff1673ffffffffffffffffffffffffffffffffffffffff1681526020016001820180546102c390610b42565b80601f01602080910402602001604051908101604052809291908181526020018280546102ef90610b42565b801561033c5780601f106103115761010080835404028352916020019161033c565b820191906000526020600020905b81548152906001019060200180831161031f57829003601f168201915b505050505081526020016002820154815250508152602001906001019061023a565b50505050905090565b60006103a76040518060400160405280601581526020017f4f70656e20736f6e67206f6e2053706f746966792100000000000000000000008152506103d3565b6103cb604051806060016040528060238152602001610c136023913960005461050b565b600054905090565b610469816040516024016103e791906108c5565b6040516020818303038152906040527f41304fac000000000000000000000000000000000000000000000000000000007bffffffffffffffffffffffffffffffffffffffffffffffffffffffff19166020820180517bffffffffffffffffffffffffffffffffffffffffffffffffffffffff83818316178352505050506105a7565b50565b610506838383604051602401610484939291906108e7565b6040516020818303038152906040527fe0e9ad4f000000000000000000000000000000000000000000000000000000007bffffffffffffffffffffffffffffffffffffffffffffffffffffffff19166020820180517bffffffffffffffffffffffffffffffffffffffffffffffffffffffff83818316178352505050506105a7565b505050565b6105a3828260405160240161052192919061092c565b6040516020818303038152906040527f9710a9d0000000000000000000000000000000000000000000000000000000007bffffffffffffffffffffffffffffffffffffffffffffffffffffffff19166020820180517bffffffffffffffffffffffffffffffffffffffffffffffffffffffff83818316178352505050506105a7565b5050565b60008151905060006a636f6e736f6c652e6c6f679050602083016000808483855afa5050505050565b8280546105dc90610b42565b90600052602060002090601f0160209004810192826105fe5760008555610645565b82601f1061061757805160ff1916838001178555610645565b82800160010185558215610645579182015b82811115610644578251825591602001919060010190610629565b5b5090506106529190610656565b5090565b5b8082111561066f576000816000905550600101610657565b5090565b6000610686610681846109d8565b6109a7565b90508281526020810184848401111561069e57600080fd5b6106a9848285610b00565b509392505050565b600082601f8301126106c257600080fd5b81356106d2848260208601610673565b91505092915050565b6000602082840312156106ed57600080fd5b600082013567ffffffffffffffff81111561070757600080fd5b610713848285016106b1565b91505092915050565b60006107288383610835565b905092915050565b61073981610ac4565b82525050565b61074881610ac4565b82525050565b600061075982610a18565b6107638185610a3b565b93508360208202850161077585610a08565b8060005b858110156107b15784840389528151610792858261071c565b945061079d83610a2e565b925060208a01995050600181019050610779565b50829750879550505050505092915050565b60006107ce82610a23565b6107d88185610a4c565b93506107e8818560208601610b0f565b6107f181610c01565b840191505092915050565b600061080782610a23565b6108118185610a5d565b9350610821818560208601610b0f565b61082a81610c01565b840191505092915050565b600060608301600083015161084d6000860182610730565b506020830151848203602086015261086582826107c3565b915050604083015161087a6040860182610885565b508091505092915050565b61088e81610af6565b82525050565b61089d81610af6565b82525050565b600060208201905081810360008301526108bd818461074e565b905092915050565b600060208201905081810360008301526108df81846107fc565b905092915050565b6000606082019050818103600083015261090181866107fc565b9050610910602083018561073f565b818103604083015261092281846107fc565b9050949350505050565b6000604082019050818103600083015261094681856107fc565b90506109556020830184610894565b9392505050565b60006020820190506109716000830184610894565b92915050565b600060408201905061098c6000830185610894565b818103602083015261099e81846107fc565b90509392505050565b6000604051905081810181811067ffffffffffffffff821117156109ce576109cd610bd2565b5b8060405250919050565b600067ffffffffffffffff8211156109f3576109f2610bd2565b5b601f19601f8301169050602081019050919050565b6000819050602082019050919050565b600081519050919050565b600081519050919050565b6000602082019050919050565b600082825260208201905092915050565b600082825260208201905092915050565b600082825260208201905092915050565b6000610a7982610af6565b9150610a8483610af6565b9250827fffffffffffffffffffffffffffffffffffffffffffffffffffffffffffffffff03821115610ab957610ab8610b74565b5b828201905092915050565b6000610acf82610ad6565b9050919050565b600073ffffffffffffffffffffffffffffffffffffffff82169050919050565b6000819050919050565b82818337600083830152505050565b60005b83811015610b2d578082015181840152602081019050610b12565b83811115610b3c576000848401525b50505050565b60006002820490506001821680610b5a57607f821691505b60208210811415610b6e57610b6d610ba3565b5b50919050565b7f4e487b7100000000000000000000000000000000000000000000000000000000600052601160045260246000fd5b7f4e487b7100000000000000000000000000000000000000000000000000000000600052602260045260246000fd5b7f4e487b7100000000000000000000000000000000000000000000000000000000600052604160045260246000fd5b6000601f19601f830116905091905056fe4e756d626572206f6620736f6e677320696e20736f6e6720706f7274616c203a202564a26469706673582212205cdd2de50d8aa543fc92fafe36b8558f6f33bdbd4d906f56737cad4ac92baec064736f6c63430008000033",
  "linkReferences": {},
  "deployedLinkReferences": {}
}